:020000040800F2
:10000000B0160020390300085B4300080F320008D7
:1000100059430008A5050008194600080000000023
:10002000000000000000000000000000790200084D
:10003000CB06000800000000D50200085D43000860
:100040005303000853030008530300085303000838
:100050005303000853030008530300085303000828
:100060005303000853030008530300080506000863
:1000700053030008110600081D060008530300087A
:100080005303000800000000530300085303000856
:1000900053030008D1060008530300085303000867
:1000A00001440008530300085303000853030008E9
:1000B00053030008530300085303000811320008DB
:1000C00053030008530300085303000853030008B8
:1000D00053030008530300085303000853030008A8
:1000E0005303000853030008530300085303000898
:1000F00053030008530300085303000800000000E6
:100100000000000053030008000000005303000833
:1001100053030008000000005303000853030008C5
:100120005303000853030008530300085303000857
:100130005303000800000000000000005303000803
:1001400053030008530300080000000000000000F3
:10015000000000000000000000000000000000009F
:100160000000000000000000000000005303000831
:100170005303000800000000000000000000000021
:100180000000000053030008000000000000000011
:10019000000000000000000000000000000000005F
:1001A0000000000000000000530300085303000893
:1001B0005303000853030008530300080000000025
:1001C00000000000530300080000000000000000D1
:1001D000530300085303000800F002F800F03CF855
:1001E0000AA090E8000C82448344AAF10107DA4592
:1001F00001D100F031F8AFF2090EBAE80F0013F0A8
:10020000010F18BFFB1A43F001031847BC5500004B
:10021000DC550000103A24BF78C878C1FAD85207DC
:1002200024BF30C830C144BF04680C607047000070
:100230000023002400250026103A28BF78C1FBD8EF
:10024000520728BF30C148BF0B6070471FB505F08B
:100250006CFA1FBD10B510BD00F0EAF81146FFF7AB
:10026000F5FF04F0F1F900F008F903B4FFF7F2FF2D
:1002700003BC00F00FF900002C4B19680868B0E8C7
:10028000F04F80F30988BFF36F8F4FF0000080F3C9
:10029000118870470000000008480068006880F37B
:1002A00008884FF0000080F3148862B661B6BFF38F
:1002B0004F8FBFF36F8F00DF00BF00BF08ED00E07E
:1002C000DFF80C00016841F470010160704700BF65
:1002D00088ED00E0EFF30980BFF36F8F134B1A68CE
:1002E0001EF0100F08BF20ED108A20E9F04F1060BB
:1002F00009B44FF0500080F31188BFF34F8FBFF364
:100300006F8F04F03DFD4FF0000080F3118809BCB1
:1003100019680868B0E8F04F1EF0100F08BFB0EC85
:10032000108A80F30988BFF36F8F70474C0000205C
:10033000EFF30580704700000948804709480047EF
:10034000FEE7FEE7FEE7FEE7FEE7FEE7FEE7FEE785
:10035000FEE7FEE704480549054A064B70470000E2
:10036000F1430008D9010008B0100020B0160020A9
:10037000B0120020B012002010B5203AC0F00B805F
:10038000B1E81850203AA0E81850B1E81850A0E899
:100390001850BFF4F5AF5FEA027C24BFB1E81850F3
:1003A000A0E8185044BF18C918C0BDE810405FEA63
:1003B000827C24BF51F8043B40F8043B08BF7047DF
:1003C000D20728BF31F8023B48BF11F8012B28BFE4
:1003D00020F8023B48BF00F8012B70474FF00002A5
:1003E00000B5134694469646203922BFA0E80C502B
:1003F000A0E80C50B1F12001BFF4F7AF090728BF06
:10040000A0E80C5048BF0CC05DF804EB890028BF81
:1004100040F8042B08BF704748BF20F8022B11F0AA
:10042000804F18BF00F8012B704770477047704726
:10043000754600F02BF8AE4605006946534620F09D
:100440000700854618B020B5FFF784FFBDE82040BF
:100450004FF000064FF000074FF000084FF0000B80
:1004600021F00701AC46ACE8C009ACE8C009ACE833
:10047000C009ACE8C0098D46704710B50446AFF31B
:1004800000802046BDE81040FFF7EFBE00487047EF
:100490005010002001491820ABBEFEE726000200E4
:1004A000704710B5846AE16D11F0500F06D0E16D10
:1004B000C90625D5204600F0F9FB10BDE06D40F4DB
:1004C0000070E06520680168090716D503F0C8FDD3
:1004D00078B12068C068800400280ADBE06D20F451
:1004E0008070E065E06DC00403D4E06D40F0010071
:1004F000E065204600F0D8FB10BDC0688007EBE740
:10050000616D496BBDE81040084710B5806AC16D48
:1005100041F04001C165016E41F00401016600F047
:10052000C5FB10BD10B5806A00F0BFFB10BD000018
:1005300070B504460068816811F0010F2DD1816803
:10054000174A11421AD18168D5432940491C81605C
:1005500001F0E6FC06461BE0816811F0010F03D1B3
:1005600081682940491C816001F0DAFC801B022867
:100570000ED920680068C043C00709D0E06D40F084
:100580001000E065206E40F001002066012070BD83
:1005900020680168C943C907DED1002070BD000092
:1005A0003F000080FEE7000070B58AB0002540F2F1
:1005B0006664CDE900454FF40024CDE9025404956A
:1005C000059501240695CDE907540C4C060A2670C2
:1005D0006070080AA070100AE170207162710F2B20
:1005E00001DA012000E00220A071E571034A6946AA
:1005F000034801F07DF80AB070BD00002C00002017
:10060000A4010020014800F0EDBE00002001002000
:10061000014800F0E7BE000054020020014800F04D
:10062000E1BE0000B40200200D4902688A4201D2F6
:100630000C4901E00B492031D2B21423083AB2FB35
:10064000F3F2436C02F01F0223F0030319448164A8
:1006500004498031C1640121914001657047000067
:1006600008040240000802400179074A02EB8102B7
:100670004265054A4432491E826501F01F0201218C
:100680009140C16570470000FC08024030B5D0E9D8
:1006900013456560446D14B1D0E91645656090F866
:1006A000444004F01F050124AC40056C6C600468F4
:1006B00063608368102B036803D099600068C26090
:1006C00030BD9A600068C16030BD704772B6FEE709
:1006D00010B5044801F0DBF8BDE81040014800F017
:1006E000B7BC0000A401002010B586B00022012193
:1006F000144800F08DFF00240120CDE90240009451
:1007000040F2FF70CDE90440019469460D4801F0C4
:1007100014F808B1FFF7DAFF4FF08040CDE900048C
:10072000032002900220CDE903046FF07E40059083
:100730006946044801F001F8024801F0A3FA06B046
:1007400010BD0000A4010020F0B5D1E901650C69DD
:100750002C430D68BEB145F080452C43D1E90665B8
:10076000354391F820704E69406D46EA076635437F
:10077000CE6803EBC303354300EBC3000023E0E87E
:1007800002450C4D0FE044EA8544E7E7D418D65CF7
:10079000E77846EA0766A77864783F0447EA0424C6
:1007A000264340C01B1DCC6805EB144424789C42B2
:1007B000ECD8F0BD7C5700082DE9F047044690F8CE
:1007C00058009CB00E464FF00009012815D00120BA
:1007D00084F8580000251795189520684FF0A04818
:1007E00040450ED1284F0097384603F035FC82462D
:1007F000206803F031FC60B10EE002201CB0BDE8BF
:10080000F087E06D40F02000E06584F8585001204A
:10081000F4E7BAF1000F09D0E06D40F02000E06588
:100820004FF0010984F858504846E7E71748326806
:1008300040F61F71002A826822F4604216D094F8B4
:10084000383042EA433273681A438260D8F808208D
:10085000BB6802F0010203F001031A43E2D1B3685E
:1008600032681A4383688B431A430BE08260D8F8DE
:100870000820BB6802F0010203F001031A43D1D142
:1008800082688A438260CDE7000100500003005077
:100890002DE9F84F00270446009790F85800DFF83C
:1008A000D8930D46B846012811D0012684F8586027
:1008B000206803F0CDFB60B1E06D40F02000E06502
:1008C0005FF0010784F858803846BDE8F88F0220B1
:1008D000FBE7D5E900210C23206803EA91131844B3
:1008E000036B01F01F014FF01F0C0CFA01FCC2F367
:1008F000846223EA0C038A4013430363206803F0F5
:10090000A7FB8246206803F09FFB5AEA00003CD117
:10091000AA6829682068B2F1004F37D003F0A8FB1D
:100920002068416921F00041416120686969C2681D
:10093000C2F3C102520091402A69042A31D000EB6F
:1009400082002B68026EDFF834C303F0F84302EA3A
:100950000C020B431A4342F00041016620682A69E9
:10096000A96900EB8200026E22F080720A430266DF
:10097000297F22682869012910D0002102EB80001C
:10098000026E22F000720A4302667DE0002203F04C
:100990006FFB2068416941F00041C5E74FF00071ED
:1009A000ECE7002103F04AFB400320684FF0000110
:1009B00072D003F043FB90FAA0F0B0FA80F12868FF
:1009C00042036ED090FAA0F0B0FA80F0814204D1D8
:1009D00000221146206803F05AFB0121206803F031
:1009E0002DFB400320684FF001015DD003F026FB92
:1009F00090FAA0F0B0FA80F12868420359D090FA3A
:100A0000A0F0B0FA80F0814204D1002201212068D8
:100A100003F03DFB0221206803F010FB4003206837
:100A20004FF0020148D003F009FB90FAA0F0B0FAB1
:100A300080F12868420344D090FAA0F0B0FA80F028
:100A4000814204D100220221206803F020FB03210F
:100A5000206803F0F3FA400320684FF0030133D01D
:100A600003F0ECFA90FAA0F0B0FA80F128684203A3
:100A70002FD090FAA0F0B0FA80F0814204D1002289
:100A80000321206803F003FB2068816811F0010F47
:100A900022D0A8E000E004E003F0D0FAC0F38461C3
:100AA0008DE7C0F3846091E703F0C8FAC0F3846176
:100AB000A2E7C0F38460A6E703F0C0FAC0F3846144
:100AC000B7E7C0F38460BBE703F0B8FAC0F3846112
:100AD000CCE7C0F38460D0E7EB6829684B4550F859
:100AE000B03FC1F3120101D10B4300E08B4303601F
:100AF000E868484577D1286841031CD090FAA0F1F6
:100B0000B1FA81F1491C01F01F0109294FEA403176
:100B100032D8002912D000BF90FAA0F1B1FA81F1C9
:100B200001F1010101F01F0106FA01F609D100BF30
:100B3000C0F3846109E0C0F38461E3E7C0F384613A
:100B4000EEE790FAA0F1B1FA81F101F1010101F0B3
:100B50001F0146EA816102D1C0F3846003E090FA8C
:100B6000A0F0B0FA80F000F1010000F01F0000EBEF
:100B7000400041EA005132E000290ED090FAA0F185
:100B8000B1FA81F101F1010101F01F0106FA01F64C
:100B900006D100BFC0F3846106E0C0F38461F1E7D1
:100BA00090FAA0F1B1FA81F101F1010101F01F0108
:100BB00046EA816102D1C0F3846003E090FAA0F0BC
:100BC000B0FA80F000F1010000F01F002C4A00EBA9
:100BD000400002EB005041EA000141F00071AA68B8
:100BE000206803F045FA27482A6802423FF46AAEBB
:100BF00025488168254B01F0E0719A4202D0244BD0
:100C00009A421CD10B021AD42268B2F1A04F7FF491
:100C100059AE826841F4000122F0E0720A4382601A
:100C20001C481D490068B0FBF1F0401C00EB40007F
:100C3000800000E0401E00900028FBD142E6174DE6
:100C4000174BAA4207D1CD0105D422689A42F5D0AC
:100C500041F0807109E0134DAA42EFD14A02EDD470
:100C600022689A42EAD041F48001826822F0E07260
:100C70000A43826026E6000000007F4000F0FF0388
:100C8000000020FE0000088000030050000021C387
:100C90001000C09048000020400D0300000052C723
:100CA00000010050000084CB70477047704700007F
:100CB000F8B54FF0000504002E46009502D0E06D17
:100CC00010B107E00120F8BD204600F0EFF82666DD
:100CD00084F8586020688168C1F3407119B1816857
:100CE0006A4A1140816020688168C1F3007189B946
:100CF0008168674A114041F08051816065486649CA
:100D00000068B0FBF1F04000801C00E0401E009045
:100D10000028FBD120688168C1F3007141B9E16D01
:100D200041F01001E165216E41F0010121660125CC
:100D300003F08EF9E16DC90600D430B1E06D40F0EA
:100D40001000E06501252846F8BDE06D20F48070B4
:100D500040F00200E0652068806810F0010F11D1BA
:100D60004FF0A04080684D4900F00100896801F013
:100D70000101084306D14A486168826822F47C1266
:100D80000A438260E168E06B627F0843A16841EA40
:100D90004231084394F8241040EA0140012904D16B
:100DA000218D404A02EB41410843E16A29B101F437
:100DB0007871226B014342EA01002168CA683A4B0C
:100DC0001A400243CA6020680169626B21F04061E9
:100DD00011430161206803F03BF90646206803F0E7
:100DE00033F930432ED1207F94F83810800340EA45
:100DF00041022068C16844F2020399431143C16073
:100E000020690028206801690AD041F4803101611D
:100E1000206850F8C01F22696FF30D01114307E0ED
:100E200021F480310161206850F8C01F6FF30D017B
:100E3000016094F8400001280CD02068016921F07D
:100E400001010161606901282068016B21F00F0137
:100E500011D013E0D4E911010843D4E9131211436E
:100E6000084321680A6940F2FC739A43104340F03A
:100E700001000861E6E7226A521E11430163E06D3A
:100E800020F0020040F00100E0655CE7C0FFFF5F7A
:100E9000C0FFFF7F48000020400D0300000100500C
:100EA000000300500000FEFF0740F0FF70B598B04F
:100EB0000546142111A8FFF791FA44216846FFF76F
:100EC0008DFA2868B0F1A04F40D14FF40040009057
:100ED00080030F90684601F06FFB08B1FFF7F6FB47
:100EE0001B49C86C40F40050C864C86C00F4005042
:100EF0001690C86C40F00200C864C86C002600F070
:100F0000020016904FF4804011900320CDE91206A4
:100F100011A9104800F0D2FE104C0F4820600520A7
:100F2000C4E901068020C4E90360400060618000DC
:100F3000A0612020E0614FF440502062204600F084
:100F4000AFFA08B1FFF7C2FB6C65A56218B070BDBF
:100F50000010024000040048080002402001002068
:100F60002DE9F0410446344817468846806800F071
:100F70001F05206803F06CF800285AD194F8580037
:100F8000012856D0012084F85800002625B1052DEF
:100F900002D0092D00D003E02046FFF7C9FA18B1AE
:100FA00084F85860BDE8F081E06D40F60161884347
:100FB00040F48070E06521492068884202D14FF0FA
:100FC000A04100E00146814200D01DB9E06D20F44F
:100FD0008010E065E06DC00404D5206E20F00600AE
:100FE000206600E02666616D1548C862616D15488F
:100FF0000863616D1448486321681C20086084F808
:1010000058602068416841F0100141602068C16863
:1010100041F00101C16021683B4642464031606DAC
:1010200000F09EFA21688A68084B1A40121D8A60F7
:10103000B8E70220B6E700000003005000010050AE
:10104000A3040008250500080B050008C0FFFF7F6A
:1010500000B58BB0134B6A464021134800F09EFB4D
:101060000098A0F54070333819D10E481038416807
:10107000491C41600B490A8852BA12B200EE102A8C
:10108000094AB8EEC00A103A82ED000A498849BA06
:1010900009B200EE101AB8EEC00A80ED000A0BB0DB
:1010A00000BD000034000020A40100202DE9F0471D
:1010B0000446407990460D4601280BD04FF00109B7
:1010C00084F8059002202071A96808F01006042910
:1010D00003D045E00220BDE8F08700F021FF07467D
:1010E0005FEA08004FF0030805D01CE000F018FF8D
:1010F000C01B01280FD82068406B0004F6D40120E3
:1011000000F074FA2168686A086416E000F008FFCD
:10111000C01B012807D9206940F00800206184F82D
:1011200004800320D7E72068406B0028EEDB012015
:1011300000F05CFA2168686A48642068816C40F2BB
:10114000FF32B2409143AA6AB240114381642068E1
:10115000C16CFF22B2409143EA6AB2401143C164BC
:10116000E869012808D12268916B1F20B0408143B3
:10117000286AB040084390632068C06B0721B140E3
:101180008843A969012903D0022955D06969E9B3C7
:1011900000216B69AA681A430A434FF4807101FA6F
:1011A00006F398432B79012B00D0002111434FF413
:1011B000007202FA06F398436B79012B00D00022EB
:1011C00020F44047286842EA0108022836D0074345
:1011D000216808FA06F03843C863206801684FF4B4
:1011E0008042B240914301602268116840F6FE706F
:1011F000B0408143E868B04008431060206801684F
:10120000C022B24091430160287B00E014E0297CB9
:101210002268C0F3830001F03C0140EA8110116EA6
:1012200040F60F73B3409943B0400143116684F810
:101230000490002060714EE70121AAE701F00EFC46
:101240000549884202D947F40047C1E7034988426B
:10125000BED947F48047BBE70068890900B4C404DD
:1012600070B5040003D02079002510B105E00120FD
:1012700070BD6571204600F007F8022020712561DD
:1012800001202071002070BD10B586B004461421E5
:101290006846FFF7A3F81149206888421BD110481F
:1012A000C16C41F48031C164C16C01F4803105919D
:1012B000C16C41F00101C164C06C694600F00100DD
:1012C00005902020009003200190002002904FF014
:1012D000904000F0F3FC06B010BD00000008005084
:1012E0000010024018B50068C46B0090104421B192
:1012F000143000900360002018BD0830F9E72DE994
:10130000F041044640790D46012822D04FF00108F3
:1013100084F805800226267121680A6805F0100706
:1013200008FA07F002430A60404600F05FF92068BF
:10133000016885B101F47811BE40B14203D1416822
:1013400041F00201416084F8048000206071BDE832
:10135000F0810220FBE7C1F344010129F3D1416888
:1013600041F00101EEE770B590F82520002401213D
:101370002346022A07D00422C26380F8251080F891
:101380002430012429E00268156825F00E05156057
:101390000268156825F001051560826C156825F452
:1013A0008075156090F84420056C02F01F0201FA68
:1013B00002F26A60D0E913255560426D32B11568BA
:1013C00025F480751560D0E91625556080F8251044
:1013D00080F82430816B01B18847204670BD90F8B9
:1013E00025007047F0B4016C0C6801680D6890F836
:1013F000442002F01F06042202FA06F3234211D011
:101400006B070FD50B689B0603D40B6823F004030E
:101410000B6090F8441001F01F018A40016C4A6093
:10142000016B1DE0022303FA06F727424FF0000C80
:101430004FF0010218D0AF0716D50C68A40605D4EA
:101440000C6824F00A040C6080F8252090F8441001
:1014500001F01F018B40016C4B6080F824C0C16A11
:1014600000291AD0F0BC08470823B340234214D007
:101470002B0712D50B6823F00E030B6090F8441075
:10148000036C01F01F0102FA01F15960C26380F898
:10149000252080F824C0416BE2E7F0BC70470000D3
:1014A00070B504000CD02B4A21681420914209D257
:1014B000294A0A44B2FBF0F08000606427480AE041
:1014C000012070BD234A52420A44B2FBF0F0800072
:1014D0006064204808382064022084F825000A68E7
:1014E00047F6F0708243D4E902031843D4E9043587
:1014F0002B431843A3691843E3691843236A18432D
:10150000104308602046FFF78FF8A0680025B0F56B
:10151000804F00D16560A16C20790860D4E9130187
:1015200041606068401E032808D82046FFF79CF8F9
:10153000606D0560D4E91601416002E06565A5654E
:10154000E565E563012084F8250084F82450002037
:1015500070BD000008040240F8FFFDBF000002401B
:1015600070B5044690F82400002501280CD0012015
:1015700084F8240094F825600020012E06D084F819
:1015800024000225284670BD022070BD022684F882
:101590002560E0632068066826F0010606602046A4
:1015A000FFF774F8206B00282068016802D041F032
:1015B0000E0106E021F0040101602068016841F09D
:1015C0000A010160A06C0168C90303D5016841F4F8
:1015D00080710160606D18B1016841F48071016033
:1015E0002068016841F001010160CBE770B5044655
:1015F00000F096FC0546601C02D004484068044494
:1016000000F08EFC401BA042FAD370BD3C000020CD
:1016100030B590F85C30012B07D0022B05D0016E5D
:1016200041F002010166012030BD0468A36D4D0741
:1016300001D0DD071DD011F0380F01D09D0718D55E
:1016400011F4E07F01D05D0713D511F4F05F01D0F4
:101650001D070ED511F4604F01D0DD0609D511F438
:10166000403F01D09D0604D511F47C0F05D05D06E6
:1016700003D4E56D45F00105E5654C0701D0DC07B5
:101680001DD111F0380F01D09C0718D411F4E07F60
:1016900001D05C0713D411F4F05F01D01C070ED405
:1016A00011F4604F01D0DC0609D411F4403F01D0A1
:1016B0009C0604D411F47C0F06D05B0604D50368A5
:1016C000DC6D44F00204DC650B0604D5036853F8B6
:1016D000DC4F14431C60CB0504D5036853F8E04F7E
:1016E00014431C600068426D0A434265002030BD0F
:1016F00070B5044690F85C00022803D0206E40F0DC
:10170000080007E02068D0F8C4309B0205D5206EA1
:1017100040F400702066012070BDD0F8C400C0F312
:1017200001452B462046FFF70FF821680120A8400D
:10173000C1F8CC00A065002070BD10B590F85C2009
:10174000012A07D0022A05D0016E41F0020101668C
:10175000012010BD0A687AB10B7B0A690C7A42EA53
:1017600043734A69406C496842EA847200EBC100E5
:10177000C0E90032002010BD0B7A4A690C8A42EAA7
:1017800083720B7B006CDB06496843EA04431A430F
:1017900040F82120EEE7704770470000F0B590F860
:1017A0005C40022C03D0016E41F008014DE004685A
:1017B00040293DD0D4F898502D0743D0D4F8984014
:1017C000C4F30126D0F84C4006EBC60504EBC50473
:1017D000256815F080455560256839D025F06045AD
:1017E00015602568284F05F00055956020CC05F060
:1017F0000045156134F8045BADB2D56154F8045C62
:1018000005F47025D56054F8045C05F48015556125
:1018100054F8045C05F40015956154F8045CC5F3B4
:101820000665156254F8045CED0F5562002518E05A
:10183000D4F890502D0705D0D4F89040C4F3012679
:10184000846CC1E7016E41F4807101660120F0BD36
:10185000C5F38A45C4E700BF14F805C003F805C006
:101860006D1CD2F80CC007EB1C4C9CF800C0AC45BA
:10187000F2D80068402903D0C0F89C600020F0BD79
:10188000C0F89460FAE700007C57000870472DE923
:10189000F04704460068016D466D01F4E0510E40CA
:1018A000016D476D01F007010F40016D426D01F0C0
:1018B000380102EA0108016D456D01F471010D4026
:1018C000016D426D01F4602102EA0109016D4906D2
:1018D00007D5416D490604D5402101652046FFF733
:1018E000D5FF2068016DC9050DD5416DC9050AD523
:1018F000D0F8D820D0F8E01011404FF48072026583
:10190000204600F0D7F92EB1206806653146204602
:1019100000F0D2F92FB1206807653946204600F063
:10192000AFF9B8F1000005D02168086541462046AE
:1019300000F0A7F92068016D890508D5416D89057A
:1019400005D54FF400710165204600F0B6F9206816
:10195000016D09060CD5416D090609D5D0F8D420D2
:10196000D0F8DC10114080220265204600F0A3F977
:101970002068016D890408D5416D890405D54FF4AF
:1019800000510165204600F094F92068016D0904BA
:1019900008D5416D090405D54FF400410165204685
:1019A00000F086F92068016D490409D5416D4904AC
:1019B00006D54FF480410165206E40F0800020661E
:1019C000B9F1000005D02168086549462046FFF7B7
:1019D000E3FE25B120680565206E28432066206E51
:1019E000002802D02046FFF7D6FEBDE8F0870000B1
:1019F0002DE9F041040006D0DFF8E88194F85C009E
:101A0000002518B107E00120BDE8F08184F85D50A1
:101A1000204600F0EFF82068816921F01001816113
:101A200000F07EFA0646032705E000BF00F078FAD2
:101A3000801B0A2811D8206880690007F6D4206826
:101A4000816941F00101816100F06AFA06460BE00C
:101A500000F066FA801B0A2806D9206E40F00100CB
:101A6000206684F85C70CEE720688069C007EFD0FC
:101A70002068816941F0020181612168414502D1FC
:101A8000594960680860207C01282068816937D046
:101A900041F040018161607C01282068816932D079
:101AA00021F480418161A07C0128206881692DD0CA
:101AB00041F48051816120688169A26821F44071FC
:101AC000114381612068816921F0A401816120684E
:101AD000016921F010010161E068012819D010B3FB
:101AE00002281BD02068816941F080018161206853
:101AF000016941F010010161E06803280ED012E095
:101B000021F04001C6E741F48041CBE721F4805148
:101B1000D0E72068816941F0040103E02068816911
:101B200041F020018161207EE26940066FF0FF01F3
:101B300001EB0222A0F100701043226AA38A521E18
:101B400010430A0202EB034318432368D861A068DC
:101B5000B0F5407F10D1D4E90A0301EB0321401E08
:101B60000843216B131303EB01110843A18C02EB13
:101B7000014108432168C860206850F8C01FE26B2B
:101B80001143016019482064216851F8802FA38E09
:101B900022F4F81242EA03420A6014497031616487
:101BA000216851F8802F94F8383022F0706242EAB0
:101BB00003620A600D49B031A1640D49E1640C492A
:101BC000D83121650A49F031616500F5547120C0B2
:101BD0008842FCD3A5652566012084F85C000020BE
:101BE00012E70000006400400065004000A40040CF
:101BF00088A5004010B598B00446142111A8FEF73E
:101C0000EDFB44216846FEF7E9FB1B49206888424A
:101C100030D18014009040030C90684600F0CCFC5A
:101C200008B1FEF753FD1548816D41F000718165E3
:101C3000816D01F000711691C16C41F00101C16428
:101C4000C06C11A900F0010016904FF4C050119023
:101C50000220129000201390149009201590C006C5
:101C600000F02CF800220521152000F00DFC1520B5
:101C700000F0FCFB18B010BD0064004000100240F2
:101C80007047704790F85C10012905D0016E41F053
:101C90000401016601207047022180F85C10016890
:101CA0008A6922F001028A610021016608467047B4
:101CB0007047704770477047704770472DE9F04F85
:101CC000DFF82092002301260324A9F1040B85B03C
:101CD0000F2709F1040AABF1040EFAE006FA03F546
:101CE0002A407CD091F804C00CF0030CBCF1010F29
:101CF00002D0BCF1020F26D1D0F808C0CDF800C048
:101D00004FEA430C04FA0CF8CDF810C0DDF800C01F
:101D10002CEA080CCDF800C0D1F80C80DDF810C01A
:101D200008FA0CF8DDF800C048EA0C08C0F8088092
:101D3000D0F804C02CEA050C0D79C5F300159D40C0
:101D400045EA0C0545600D79ED43AD070ED0C56839
:101D50004FEA430804FA08FC25EA0C05D1F808C04C
:101D60000CFA08FC4CEA050CC0F80CC00D7905F023
:101D70000305022D16D1DD0800EB850CCDF808C057
:101D8000DCF820805D074FEAD56C07FA0CF528EAED
:101D900005080D6905FA0CF5DDF808C045EA0805E7
:101DA000CCF8205005684FEA430CCDF808C004FA7F
:101DB0000CFC25EA0C0591F804C00CF00308DDF8D2
:101DC00008C008FA0CF848EA0508C0F800804D6819
:101DD00015F4403F7CD0444DD5F860C000E077E07A
:101DE0004CF0010CC5F860C02D6E23F0030C05F01B
:101DF000010500953D4D65440295AD684FEA837C31
:101E00004FEA1C7807FA08FC25EA0C05B0F1904F60
:101E100006D0DFF8DCC0604505D14FF0010C20E0B2
:101E20004FF0000C1DE0DFF8CCC0604502D14FF050
:101E3000020C16E0DFF8C0C0604502D14FF0030C81
:101E40000FE0DFF8B8C0604502D14FF0040C08E0A5
:101E5000DFF8ACC0604502D14FF0050C01E04FF057
:101E6000060C0CFA08FC4CEA050C029DC5F808C0EB
:101E7000D9F80050CC46D1F8048095435FEAC828D1
:101E800000D51543CCF80050DAF80050D446D1F80C
:101E9000048095435FEA882800D51543CCF80050AC
:101EA000DBF80050DC46D1F8048095435FEA8838BF
:101EB00000D51543CCF80050DEF80050F446D1F8B8
:101EC000048095435FEAC83800D51543CCF800502C
:101ED0005B1C0A6832FA03F57FF400AF05B0BDE879
:101EE000F08F000008040140001002400000014093
:101EF0000004004800080048000C0048001000489A
:101F000000140048426921EA02030A4043EA024100
:101F1000816170470AB1816170478162704700003A
:101F200001488068704700003C00002090F8412084
:101F3000202A24D190F84020012A20D0012280F8C4
:101F40004020242280F841200268136823F0010316
:101F500013600268136823F48053136002681368E7
:101F60000B43136001680A6842F001020A602021F5
:101F700080F84110002180F8401008467047022088
:101F8000704790F84120202A22D190F84020012A61
:101F90001ED0012280F84020242280F841200268CF
:101FA000136823F0010313600268136823F470635D
:101FB00043EA0121116001680A6842F001020A60E7
:101FC000202180F84110002180F840100846704719
:101FD0000220704770477047026891691268436B2E
:101FE000002B00D0184770477047000070B5040000
:101FF00004D094F84100002510B106E0012070BD26
:1020000084F84050204600F01BF9242084F8410059
:102010002068016821F0010101606068216820F0FA
:10202000706008612068816821F400418160E06887
:102030000128A06807D040F4044021688860E06867
:10204000022803D006E040F40040F6E721684FF490
:102050000060486020684168114A1143416020686F
:10206000C16821F40041C160D4E904010843A169B9
:1020700040EA01202168C860D4E9070108432168CB
:1020800008602068016841F001010160656420205A
:1020900084F84100256384F84250002070BD0000A0
:1020A000008000027047704770477047704700001B
:1020B0002DE9FC470446DDE90A7690F84100984690
:1020C00091468A46202850D13FB336B320688069B4
:1020D000C043000449D594F84000012845D00120B0
:1020E00084F840002434FFF71BFF22216177402150
:1020F000A1770025256244F8067B26801C49C4F898
:1021000002101C49C4F80A1034F82A19FF2908D90A
:10211000FF2121854FF0807607E04FF40070606466
:102120000FE0618D21854FF000761921CDE9001077
:1021300043464A465146204601F0FEFC20B184F851
:1021400040500120BDE8FC870B48009094F82820FF
:1021500033465146204601F069FE84F84050022182
:10216000204601F095F80020ECE70220EAE70000A5
:102170000000FFFF113A0008002400802DE9FC4711
:102180000446DDE90A7590F84100984691468A4672
:1021900020284FD13FB335B320688069C043000485
:1021A00048D594F84000012844D0012084F840002C
:1021B0002434FFF7B5FE212161774021A177002665
:1021C000266244F8067B25801B49C4F802101B498F
:1021D000C4F80A1034F82A19FF2908D9FF212185EB
:1021E0004FF0807507E04FF4007060640FE0618D80
:1021F00021854FF000751921CDE9001043464A466C
:102200005146204601F0CAFC20B184F8406001200C
:10221000BDE8FC87009694F828202B4651462046BE
:1022200001F004FE84F840600121204601F030F8FE
:102230000020EDE70220EBE70000FFFF113A000865
:102240002DE9F04F97B00646142111A8FEF7C6F805
:1022500044216846FEF7C2F84149306888427CD183
:1022600040204FF0000B0090CDF818B0684600F009
:10227000A3F908B1FEF72AFA3A4CE06C40F00100ED
:10228000E064E06C00F001001690E06C40F00200A9
:10229000E064E06C4FF0120900F0020016904FF479
:1022A0000040CDE9110913AA012503274FF0040AC4
:1022B00082E8A00411A94FF09040FFF7FFFC13AA99
:1022C0004FF0800882E8A00411A92748CDE91189C0
:1022D000FFF7F4FCA06D40F40010A065A06D244C45
:1022E00000F400101690214820604FF01009C4E956
:1022F000019BC4E903B804F118015D4620274FF49F
:102300004058C4F814B081E8A0012046FFF7C8F88F
:1023100008B1FEF7DBF9F463A662154C134860348C
:10232000143020601120C4E901098020C4E9035061
:1023300004F11801656181E8A0012046FFF7B0F8BB
:1023400008B1FEF7C3F9B463002205211F20A6627D
:1023500000F09AF81F2000F089F817B0BDE8F08F60
:1023600000540040001002400004004830000240C9
:102370005402002070477047024881684268114447
:10238000816070473C00002010B50024032000F05D
:102390009BF80F2000F008F808B1012401E000F0DC
:1023A00047F8204610BD000030B505461B4887B0F1
:1023B000016E41F480310166006E06A900F48030A0
:1023C000009001A800F02AFB00F04EFB1449154ACA
:1023D000B0FBF1F11448491E0260416040F2E7325F
:1023E0000021C0E90321816000F095FD040012D1B5
:1023F0000D4800F0C3FD04000DD1182000F036F8A0
:10240000102D07D200222946182000F03DF8074879
:10241000056000E0012407B0204630BD00100240F6
:1024200040420F0000400140140300203C00002007
:102430000D4808B5016E41F001010166016E01F021
:1024400001010091816D41F080518165806D002214
:1024500000F0805000900F21901E00F015F8BDE8AC
:10246000084000F0A1B8000000100240002809DB7D
:1024700000F01F02012191404009800000F1E0209E
:10248000C0F8001170470000F0B40E4B1B680C46FA
:10249000C3F30223C3F10705042D00D90425191D38
:1024A000072901D2002300E0DB1E012606FA05F110
:1024B000491E214099409E40761E16403143F0BC93
:1024C00002F0ABB80CED00E0064900F00702086826
:1024D0004FF6FF03184040EA0220034A1043086009
:1024E000704700000CED00E00000FA052B492C4B72
:1024F0000A6832214A432B4940B1B0F5007F086891
:1025000029D020F4C06040F480602CE00868C0F35B
:102510004120022804D051F8800F20F4807022E07E
:10252000D1F8800020F48070C1F88000086820F4A1
:10253000C06040F400700860B2FBF3F0401C00E0A3
:10254000401E4A69520501D50028F9D14869400565
:102550000AD503207047C0F34120022806D051F865
:10256000800F40F48070086000207047D1F8800030
:1025700040F48070C1F88000086820F4C06040F426
:1025800000700860B2FBF3F0401C00E0401E4A6996
:102590005205DBD50028F9D1D8E70000480000201B
:1025A00040420F00007000400248816841F48041C1
:1025B00081607047007000402DE9F84304460068D0
:1025C00000269D4D00035ED5A86D0027C00008D4ED
:1025D000A86D40F08050A865A86D012700F08050DC
:1025E0000090DFF85892D9F8001041F48071C9F8D2
:1025F0000010FFF795FC804606E000BFFFF790FC57
:10260000A0EB080002282BD8D9F80000C005F5D5AA
:10261000D5F8900010F4407014D0216C814211D094
:10262000D5F89000D5F8901020F4407041F4803136
:10263000C5F89010D5F8901021F48031C5F89010AD
:10264000C5F89000C00711D0FFF76AFC804641F240
:10265000883907E0FFF764FCA0EB0801494501D980
:1026600003260BE0D5F890008007F3D5D5F890004D
:10267000216C20F440700843C5F890001FB1A86D8C
:1026800020F08050A8652078C00707D0D5F88800D2
:10269000616820F003000843C5F8880020788007AF
:1026A00007D5D5F88800A16820F00C000843C5F8CC
:1026B00088002078400707D5D5F88800E16820F029
:1026C00030000843C5F888002078000707D5D5F802
:1026D0008800216920F0C0000843C5F888002078F0
:1026E000800607D5D5F88800616920F4406008436A
:1026F000C5F888002078400607D5D5F88800A1697C
:1027000020F440500843C5F888002078000607D51B
:10271000D5F88800E16920F440400843C5F88800F6
:102720002088C00507D5D5F88800216A20F44030FC
:102730000843C5F888002088800507D5D5F88800AB
:10274000616A20F440200843C5F8880020884005CD
:102750000FD5D5F88800A16A20F440100843C5F8C9
:102760008800A06AB0F5801F03D1E86840F48010AB
:10277000E860208800050FD5D5F88800E16A20F4CC
:1027800040000843C5F88800E06AB0F5800F03D127
:10279000E86840F48010E8602088C0040FD5D5F8C0
:1027A0008800216B20F040700843C5F88800206B3A
:1027B000B0F1807F03D1E86840F48010E8602088A1
:1027C0004FF0006180040ED5D5F88800626B20F0D0
:1027D00040601043C5F88800606B884203D1E86808
:1027E00040F48010E860208840040ED5D5F88800B9
:1027F000A26B20F040601043C5F88800A06B8842AF
:1028000003D1E86840F48010E860208800040FD508
:10281000D5F88800E16B20F040500843C5F88800E7
:10282000E06BB0F1805F03D1E86840F48030E8608D
:102830003046BDE8F8830000001002400070004000
:102840002DE9F0470E4605004FF0000725D0DFF8D0
:10285000AC81D8F8000000F00F00B0420CD2D8F8DC
:10286000001021F00F013143C8F80010D8F8000023
:1028700000F00F00B04210D12968614CC80741F246
:10288000883A5AD06868DFF87C91032808D002287B
:1028900020682DD0400500282CDB0120BDE8F08702
:1028A00020688001F9D5E06800F00302E068C0F319
:1028B0000310401C032A19D0534A00BFB2FBF0F0AA
:1028C000E268C2F306225043E268C2F34162521C3E
:1028D0005200B0FBF2F0484517D9A06810F0F00F95
:1028E0000CD0880711D5A86840B10EE0474AE5E74B
:1028F0008003D0E700F0CAF8484506D9A06820F068
:10290000F00040F08000A0608027A068696820F097
:1029100003000843A060FFF703FB814606E000BF09
:10292000FFF7FEFAA0EB090151453AD8A0686968A3
:1029300000F00C00B0EB810FF2D12868810714D5AC
:10294000400703D5A06840F4E060A0602878000745
:1029500005D5A06820F4605040F4E060A060A06855
:10296000A96820F0F000084304E0802F03D1A0689C
:1029700020F0F000A060D8F80010404601F00F01F0
:10298000B14216D9016821F00F0131430160FFF710
:10299000C7FA074607E000BFFFF7C2FAC11B51455F
:1029A00001D903207AE7D8F8000000F00F00B04208
:1029B000F2D12878400705D5A068E96820F4E060E6
:1029C0000843A0602878000706D5A068296920F48C
:1029D000605040EAC100A06000F058F8A1680C4ABD
:1029E000C1F30311515C01F01F01C840094908609F
:1029F00009480068BDE8F047FFF7D6BC0020024058
:102A00000010024000B4C4040024F40040787D01AA
:102A10008C570008480000203C0000200F22026074
:102A20000C4A936803F003034360936803F0F003D8
:102A30008360936803F4E063C36092684FF4E063DB
:102A400003EAD20202610448006800F00F00086047
:102A5000704700000010024000200240014800685A
:102A60007047000048000020054806490068896852
:102A7000054AC1F3C221515C01F01F01C8407047F3
:102A800048000020001002409C570008184910B56B
:102A90008868C0F381021748012A0BD08A68164B58
:102AA000C2F38102022A06D08A68C2F38102032A95
:102AB00003D0002010BD184610BDCA6802F0030400
:102AC000CA68C2F30312521C032C02D0B0FBF2F00E
:102AD00001E0B3FBF2F0CA68C968C2F306225043B2
:102AE000C1F34161491C4900B0FBF1F010BD000089
:102AF000001002400024F40040787D012DE9F843E5
:102B000004007AD02078FA4DC00747D0A868E96859
:102B100000F00C0001F003010C2802D0082817D0A7
:102B200001E0032914D06068B0F5803F17D0B0F5FC
:102B3000A02F286817D020F480302860286820F45F
:102B4000802028606068E0B1FFF7EAF9064614E0EB
:102B50002868800322D560680028D2D01EE028684B
:102B600040F48030EDE740F480202860F7E700BFB4
:102B7000FFF7D6F9801B642870D828688003F7D542
:102B80000CE0FFF7CDF9064605E000BFFFF7C8F9F6
:102B9000801B6428F0D828688003F7D42078800749
:102BA0004CD5A868E96800F00C0001F003010C287E
:102BB00002D004280DD001E002290AD0E0680028E4
:102BC00028682BD040F480702860FFF7A9F90646EA
:102BD00019E02868400502D5E068002891D06868AF
:102BE000217C20F0FE4040EA01606860C148006836
:102BF000FFF7DAFB002800D120E076E1FFF790F93B
:102C0000801B0228B8D828684005F7D56868217C61
:102C100020F0FE4040EA016068600FE020F4807020
:102C20002860FFF77DF9064605E000BFFFF778F959
:102C3000801B0228A0D828684005F7D42078000718
:102C400029D560690028D5F8940013D040F0010020
:102C5000C5F89400FFF764F9064606E090E000BF6F
:102C6000FFF75EF9801B022886D8D5F8940080070C
:102C7000F6D510E020F00100C5F89400FFF750F9F8
:102C8000064604E0FFF74CF9801B022878D8D5F8F7
:102C900094008007F6D42078400761D5A86D0026FF
:102CA000C00008D4A86D40F08050A865A86D01262A
:102CB00000F08050009090480168C90511D4016867
:102CC000804641F480710160FFF72AF9074604E06D
:102CD000FFF726F9C01B022852D8D8F80000C0051B
:102CE000F6D5A068012815D00528D5F8900016D093
:102CF00020F00100C5F89000D5F8900020F0040005
:102D0000C5F89000A06841F28838B8B1FFF708F91B
:102D100007460EE0D5F8900040F00100F0E740F0E3
:102D20000400C5F89000F5E7FFF7FAF8C11B41452C
:102D300026D8D5F890008007F6D50CE0FFF7F0F81C
:102D4000074604E0FFF7ECF8C11B414518D8D5F859
:102D500090008007F6D41EB1A86D20F08050A865C1
:102D60002078800629D5A0690028D5F8980013D0CE
:102D700040F00100C5F89800FFF7D2F8064606E0DB
:102D800077E000BFFFF7CCF8801B022877D8D5F892
:102D900098008007F6D510E020F00100C5F89800F3
:102DA000FFF7BEF8064604E0FFF7BAF8801B0228DA
:102DB00065D8D5F898008007F6D4E069F0B3A96823
:102DC000C1F38101032961D00228286820F08070B6
:102DD00028600BD0E86820F00300E860E868474905
:102DE0000840E860FFF79CF804464BE0FFF798F8CE
:102DF000064604E0FFF794F8801B02283FD82868B5
:102E00008001F7D4F4E908016FF00F0202EB011121
:102E10000843218A5204490802EB4151A26841EA61
:102E200002210843217D4FF07E42490802EB4161B7
:102E30000843217B40EAC160E96800E062E0304A73
:102E400011400843E860286840F080702860E86816
:102E500040F08070E860FFF763F8044605E000BFCB
:102E6000FFF75EF8001B022809D828688001F7D513
:102E700048E004E0FFF754F8001B022802D90320C1
:102E8000BDE8F88328688001F4D43BE00128F7D03E
:102E9000E868226A00F00301914226D1616A00F0DD
:102EA000F0020901103991421FD1A26A00F4FE41DB
:102EB000B1EB022F19D194F82C2000F07841B1EB3E
:102EC000C26F12D1218E00F4C00249084905A1F554
:102ED0000011914209D194F8341000F0C060490803
:102EE0004906A1F1007181420CD00120C8E7000021
:102EF000001002403C00002000700040FFFFEEFE8A
:102F00000C809F010020BBE77047704770477047F7
:102F100070477047704710B5040003D094F83D0027
:102F200010B107E0012010BD002084F83C002046CD
:102F300000F022F8022084F83D00211D206801F0F5
:102F400065FA012084F8480084F83E0084F83F00C8
:102F500084F8400084F8410084F8420084F843007B
:102F600084F8440084F8450084F8460084F847005B
:102F700084F83D00002010BD7047000090F83D101F
:102F8000012901D001207047022180F83D1001681D
:102F9000CA6842F00102CA600068104988420ED037
:102FA000B0F1804F0BD00E49884208D00D498842BD
:102FB00005D00D49884202D00C49884207D181686A
:102FC0000B4A1140062906D0B1F5803F03D00168B5
:102FD00041F001010160002070470000002C014019
:102FE000000400400008004000340140004001405F
:102FF00007000100704770B50446006801694FF092
:103000000005C943890715D4C168C943890711D48C
:10301000E91E016101202077206880698007204631
:1030200002D0FFF7E7FF04E000F0E3F8204600F0ED
:10303000E1F8257720680169C943490717D4C168B9
:10304000C943490713D46FF00401016102202077BE
:103050002068806910F4407F204602D0FFF7CAFF45
:1030600004E000F0C6F8204600F0C4F82577206898
:103070000169C943090716D4C168C943090712D4B5
:103080006FF008010161042020772068C069800783
:10309000204602D0FFF7AEFF04E000F0AAF8204679
:1030A00000F0A8F8257720680169C943C90617D43C
:1030B000C168C943C90613D46FF01001016108202B
:1030C00020772068C06910F4407F204602D0FFF7C7
:1030D00091FF04E000F08DF8204600F08BF8257792
:1030E00020680169C943C90708D1C168C943C90734
:1030F00004D1891E0161204600F07EF82068016934
:10310000C943090609D4C168C943090605D46FF04B
:10311000800101612046FFF7F8FE20680169C9437C
:10312000C90509D4C168C943090605D46FF4807183
:1031300001612046FFF7E8FE20680169C94349069E
:1031400009D4C168C943490605D46FF04001016143
:10315000204600F05BF820680169C943890609D45C
:10316000C168C943890605D46FF02001016120467A
:10317000FFF7CCFE20680169C943C90209D4C168C0
:10318000C943C90205D46FF4801101612046FFF7DD
:10319000BFFE20680169C943890209D4C168C943D7
:1031A000890205D46FF4001101612046FFF7AFFEDC
:1031B00020680169C943490209D4C168C943490269
:1031C00005D46FF4800101612046FFF7A2FE20685C
:1031D0000169C94309020BD4C168C943090207D474
:1031E0006FF4000101612046BDE87040FFF792BE18
:1031F00070BD70477047000000680349884201D1E4
:10320000FFF7BAB870470000004001407047FEE782
:103210000148FEF7E1BE000008020020806A00219C
:10322000826B02B19163C26B02B1916300F016BE72
:1032300010B50022CC074FF0280306D090F841408B
:10324000422233EA040400D0F2228C0707D590F81A
:10325000414042F04402A34301D042F0B0020B04CB
:1032600001D542F0B802102904D0202905D0402908
:1032700006D007E042F0900204E042F0200201E0B4
:1032800042F04002006801689143016010BD0000F7
:1032900010B5174C436B0022A34202D0154CA34239
:1032A00012D10B0400D5B822102904D0202905D052
:1032B000402906D017E042F0900214E042F060028C
:1032C00011E042F040020EE00B0400D5B822CB071B
:1032D00001D042F0F2028B0701D542F0F40220291E
:1032E00001D142F02002006801681143016010BD65
:1032F00001390008013C000801688A69D24392073D
:1033000001D400228A6200688169C943C90703D0D9
:10331000816941F00101816170472DE9F041044666
:1033200090F841002821814320684FF000054FF0BC
:10333000080304D0C36184F84050BDE8F08181697E
:10334000C1F300478169FE2202EA11468168C1F398
:103350000902C168D4F80CE001F0FE014FF4004C02
:10336000BEF1020F17D14FF0060E06F006060EEA68
:10337000D21E76450ED1A16C491CA164A16C022914
:10338000DBD1A564C36184F8405039462046FEF77E
:1033900022FED2E70E4661462046FFF749FF84F839
:1033A00040503246F1E7000070B5044690F8410005
:1033B000002584F84250364AE2626585626C0A4311
:1033C000626428281FD029281DD02A281BD048F243
:1033D00003012046FFF72CFF94F84100602802D03B
:1033E000202084F841006563206B2A4EA16B19B13F
:1033F000112812D0212810D0E16BE9B3122824D073
:10340000222822D03EE003212046FFF711FF28208A
:1034100084F8410020486063E6E7206801684904B9
:1034200003D5016821F480410160A06BFDF7D7FF4F
:10343000012827D0A06B866384F84050A06BFDF76D
:1034400092FF002823D0A06B18E0206801680904CF
:1034500003D5016821F400410160E06BFDF7BFFF77
:1034600001280FD0E06B866384F84050E06BFDF7D5
:103470007AFF00280BD000E004E0E06B816BBDE830
:10348000704008472046BDE8704000F0E7BC70BDC2
:103490000000FFFF1D3200080D3D000870B5044616
:1034A0001648E06200252563202084F8410084F856
:1034B0004250C8436563400711D42068406A616A7E
:1034C0000870606A401C6062208D40B1401E2085FB
:1034D000608D401E6085606C40F00400606448F2BE
:1034E00003012046FFF7A4FE21681020C86184F87C
:1034F00040502046FEF7D6FD70BD00000000FFFFE3
:10350000F8B50446006820260F46C66194F84100CD
:10351000212804D094F84100222806D00BE0012194
:103520002046FFF785FE112004E002212046FFF728
:103530007FFE12202063206841682B4A11404160C1
:1035400000252A486563E062F843C10606D4226874
:103550001021D161616C41F00401616494F8411063
:10356000602905D1400703D42068406AC0B20090AA
:103570002046FFF7C1FE606C94F84110602900D02E
:1035800028B1616C2046BDE8F840FFF70DBF94F804
:103590004100212812D094F8410022280DD184F84E
:1035A0004160256394F8420084F84250402884F832
:1035B0004050204614D0FEF776FDF8BD84F84160F7
:1035C000256394F8420084F84250402884F8405023
:1035D000204602D0FEF768FDF8BDFEF767FDF8BD96
:1035E000FEF763FDF8BD000000E800FE0000FFFFED
:1035F00070B50025044680F8425090F84110202014
:10360000212984F841000CD0122020630221204699
:103610006563FFF70DFE84F840502046FEF743FD3A
:1036200070BD11202063012120466563FFF700FE75
:1036300084F840502046FEF737FD70BD2DE9F0417B
:1036400002680446156890F841000E462027D761AD
:10365000212806D0292804D0222809D02A2807D0DA
:103660000DE048F201012046FFF7E2FD212005E0D0
:1036700048F202012046FFF7DBFD2220206320688C
:10368000416841F40041416020684168354A114079
:1036900041602046FFF730FEE843410406D420682D
:1036A000016821F480410160A06B07E0000409D4A7
:1036B0002068016821F400410160E06B10B10068EE
:1036C00040686085F04340070FD4206826F0040668
:1036D000406A616A0870606A401C6062208D20B197
:1036E000401E2085608D401E6085608D18B1606C25
:1036F00040F004006064002584F842506563606C0B
:1037000068B1616C2046FFF74FFE94F8410028280D
:1037100015D131462046BDE8F041FFF7BFBEE06A53
:10372000114EB0420DD0204600F020F8E66284F839
:103730004170256384F840502046FEF7B3FCBDE895
:10374000F08194F8410084F841702228256384F8C0
:103750004050204602D0FEF70EFEF0E7FEF70AFECC
:10376000EDE7000000E800FE0000FFFF70B5044632
:1037700000680168002584F84250C9434A0403D414
:10378000016821F4804104E0090403D4016821F4B4
:103790000041016094F841102820292911D094F8A3
:1037A00041102A290CD184F84100222020630221F3
:1037B0002046FFF73DFD84F840502046FEF7DAFD35
:1037C00070BD84F841002120206301212046FFF7CD
:1037D0002FFD84F840502046FEF7CDFD70BD00005F
:1037E0002DE9F047044600688A461746816900259E
:1037F0002E46C906A9464FF0200849D51021C161BF
:1038000037E000BFBAF1FF3F33D0FEF789FBC11BA1
:10381000514502D8BAF1000F2BD12068416894F8C5
:10382000422001F480418369DB431B041CD4B1F5C1
:10383000804F19D0202A17D0416841F4804141605F
:10384000FEF76EFB07460FE0FEF76AFBC01B192868
:103850000AD9606C40F02000606484F8418084F8EC
:10386000429084F84090012520688069C04380061A
:10387000EAD420688069C043800602D5002DC1D0FB
:1038800003E015B92168C1F81C8046F00406012543
:1038900021688869C20505D54FF4807246F001069B
:1038A000CA610125410509D522684FF4806146F0BF
:1038B0000806D1610125800502D40AE0800507D5FC
:1038C00021684FF4007046F00206C861012500E04F
:1038D0008DB12046FFF710FD54F8240B4168074ACC
:1038E00011404160206A3043206284F81D8084F8D2
:1038F0001E9084F81C902846BDE8F08700E800FE82
:10390000F8B5044690F8400001281AD0012084F848
:103910004000CB43DE064FF000056FEA020012D4F0
:10392000C20610D421681020C861606C40F0040009
:10393000606420212046FFF7ABFC2046FFF7DCFC4B
:103940005FE00220F8BD314A1E0638D4460636D460
:103950002068016821F040010160608D0028206826
:10396000406829D0C0F30901608DFF2804D9FF20E9
:1039700020854FF0807308E0608D2085E06A9042DA
:1039800001D0E36A01E04FF00073009594F828201D
:10399000204600F04BFA608D218D401A608594F826
:1039A000410022282068016803D041F48041016071
:1039B00027E041F40041FAE7800117D505E05E06F3
:1039C00018D4460616D4608D20B140212046FFF75A
:1039D000EBFC16E020684168890112D4E16A91424B
:1039E00004D1416841F4804141600AE02046FFF77C
:1039F000FFFD06E09A0604D4800602D42046FFF7B5
:103A00007FFD84F840500020F8BD00000000FFFF5B
:103A1000F8B5044690F840000E46012816D0012063
:103A200084F84000F043C1064FF000076FEA02053A
:103A30000ED4E9060CD421681020C861606C40F0F7
:103A4000040060642046FFF757FC55E00220F8BDF3
:103A5000410708D4690706D4206826F00406406AA6
:103A6000616A087007E081070FD4A9070DD4606A66
:103A7000216800788862606A401C6062208D401E68
:103A80002085608D401E608536E02A4A010629D4D3
:103A9000690627D4608D08B1208D20B12068406868
:103AA000800142D524E020684068C0F30901608DA0
:103AB000FF2805D9FF2222854FF0807300970DE083
:103AC000608D2085E06A0097904203D0E36A94F805
:103AD000282003E094F828204FF00073204600F0DF
:103AE000A5F909E0400607D4680605D4608D80B1C9
:103AF00040212046FFF758FCF043800605D4A80675
:103B000003D431462046FFF7FBFC84F840700020C8
:103B1000F8BD206841688901EED4E16A914204D180
:103B2000416841F480414160E6E72046FFF760FDCF
:103B3000E2E700000000FFFF2DE9F84304461646C7
:103B4000DDE9089714489846DAB200900023204631
:103B500000F06CF93A464946204600F0C0F9B8B981
:103B6000F5B2B8F1010F08D02168300A88623A46F0
:103B70004946204600F0B3F950B9206885624B46AB
:103B8000002240212046009700F07DF9002800D057
:103B90000120BDE8F8830000002000802DE9F843F3
:103BA0000446164615489846DDE90897DAB2C3027E
:103BB0000090204600F03AF93A464946204600F087
:103BC0008EF9B8B9F5B2B8F1010F08D02168300A02
:103BD00088623A464946204600F081F950B920688B
:103BE00085624B46002280212046009700F04BF969
:103BF000002800D00120BDE8F883000000200080EC
:103C00002DE9F047C66A8946044690F840004FF017
:103C10000008012820D0012084F840006FEA09073D
:103C2000B8066FEA020505D4A80603D44946204623
:103C3000FFF704FDF8065CD4E8065AD469044FF097
:103C4000100001D5290451D4E16B51B12A0408D4E4
:103C50000968496819B104E00220BDE8F0874FF017
:103C60000108A16B21B16A0402D40968496811B145
:103C7000B8F1000F1CD094F84110282902D1B6F1F8
:103C8000007F04D094F84110292905D02EE0494640
:103C90002046FFF703FC34E016F5803F26D021686C
:103CA000C8612046FFF728FB2046FFF75FFD28E0AC
:103CB0002168C861606C40F00400606494F84100C1
:103CC00016B1B6F1807F1CD1212806D0292804D056
:103CD000222804D02A2802D003E0212000E022205C
:103CE0002063616C2046FFF75FFB0AE02168C86132
:103CF00007E0380705D4280703D449462046FFF7D4
:103D00000CFB002084F84000A7E700002DE9F041FB
:103D1000C56A044690F840008846012826D0012054
:103D200084F840006FEA0807B8066FEA020605D477
:103D3000B00603D441462046FFF780FC3A49F80616
:103D40004FF0807231D4F0062FD4638D102083B1F0
:103D50002168C861606C40F0040060640DB1954258
:103D60005ED1616C2046FFF71FFB59E00220BDE8E1
:103D7000F08194F84120282A02D1B5F1007F04D0C7
:103D800094F84120292A05D00CE041462046FFF74F
:103D900085FB45E08D4205D02168C8612046FFF7CC
:103DA000ABFA3AE02168C8613AE0780715D47007A9
:103DB00013D4608D60B12068406A626A1070606AD6
:103DC000401C6062208D401E2085608D401E6085F5
:103DD000608D28BB8D4220D122E0380706D4300701
:103DE00004D441462046FFF798FA19E0B80717D4E3
:103DF000B00715D4608D68B1606A21680078886268
:103E0000606A401C6062608D401E6085208D401E8F
:103E1000208505E0954200D015B92046FFF7A6FCA5
:103E2000002084F84000A2E70000FFFF10B5C1F3B6
:103E3000090141EA02410268029C1943214350688A
:103E400021F000414FF4806303EA5453024C2343B2
:103E500098430843506010BDFF63FF0310B590F80E
:103E600041200021602A05D0016380F84010FEF750
:103E7000BBF810BD202280F84120016380F840107B
:103E8000FEF7A8F810BD2DE9F0411D4617460E4675
:103E90000446DDF8188008E0681C06D0FEF740F8FC
:103EA000A0EB0800A8420BD855B12068806936EA1B
:103EB000000012D00020B842EED00020BDE8F08112
:103EC00054F8440F40F0200044F8040920206070AA
:103ED0000020A07020700120F0E70120EBE770B512
:103EE00016460D4604460FE0324629462046FFF7A7
:103EF00077FC08B1012070BD681C05D0FEF710F8F2
:103F0000801BA84207D835B120688069C04380076C
:103F1000EAD4002070BD54F8440F40F0200044F86B
:103F20000409202060700020A0702070E2E70000EB
:103F300008B543F61F41002000F066F869460420EA
:103F400000F050F89DF801009DF8001000EB0120F2
:103F500001F069FA9FED051B53EC112B01F076FA85
:103F600001F034FA0349488008BD0000D7A3703D32
:103F70000AD7EB3F0000002008B56946032000F097
:103F800031F89DF801009DF8001000EB012000EBD6
:103F900080004FF6FF7101EA80000149888008BD6A
:103FA0000000002008B56946022000F01BF89DF8CB
:103FB00001009DF8001000EB01200249C0088000BC
:103FC000088008BD0000002010B543F61F41002006
:103FD00000F01AF8BDE810404FF48051052000F0C1
:103FE00013B800001CB50222CDE9001202460123DD
:103FF00081210448FEF75CF8BDE81C40642000F015
:104000001CBB0000080200200EB5002202920A0A22
:104010008DF808208DF80910022202A9CDE90012BE
:104020000246012380210448FEF7A8F86420FDF72A
:10403000DDFA00200EBD00000802002000EB810028
:10404000006E00F0F84070478068C0F3C000704711
:104050008068C0F3800070478068C0F380007047BC
:10406000C06810F4406F01D00020704701207047F5
:10407000042303EAD15310B518444369C1F3045132
:1040800007248C40A3438A401343436110BD00EBD7
:104090008100016E21F0004111430166704700006C
:1040A00030B58BB0002408940994202168460A9406
:1040B000FCF794F91C484FF0A041042501604FF42F
:1040C0004031C0E90114C4600461C0E905450477CA
:1040D00001214177016280F82440C462046380F8C2
:1040E0003840C46380F84040FCF7E2FD08B1FCF7BB
:1040F000EDFA08A90C480894FCF75EFB08B1FCF740
:10410000E5FA0A4800900620CDE901047F200594D5
:10411000CDE9030569460448FCF7BAFB002801D045
:10412000FCF7D4FA0BB030BDB40000202000F0142E
:1041300000B58DB030216846FCF750F911491048A0
:1041400008600846FDF78CF808B1FCF7BFFA0220BA
:10415000009000208DF804008DF805000290039077
:1041600004210490CDE90501079010226946054815
:10417000FCF79CFF002801D0FCF7A8FA0DB000BDA9
:104180000008005080010020154808B5816C41F0FE
:1041900004018164816C01F004010091816C41F0A3
:1041A00001018164806C002200F001000090052173
:1041B0000B20FEF769F90B20FEF758F900220521C4
:1041C0000D20FEF761F90D20FEF750F900220521C0
:1041D0000E20FEF759F9BDE808400E20FEF746B95B
:1041E0000010024070B512481049112301600021EF
:1041F00041608160C1600174417481740122C0E931
:10420000053205240425436200F12806C0E907456C
:1042100086E83400C0E90D21C163FDF7E9FB002801
:1042200003D0BDE87040FCF751BA70BD0064004097
:10423000A401002010B590B0142211496846FCF783
:104240009BF80021684600F049FA0E4C0C491422F4
:10425000E060143105A8FCF78FF8002105A800F0F4
:104260003DFA07492061142228310AA8FCF784F896
:1042700000210AA800F032FA606110B010BD000001
:10428000405700080800002010B586B01421684689
:10429000FCF7A4F81848C16C41F02001C164C16C5E
:1042A00001F020010591C16C41F00101C164C16CB4
:1042B00001F001010591C16C41F00201C164C06CC3
:1042C0000E4C00F002000590012208212046FDF767
:1042D00021FE002260212046FDF71CFE68200121FE
:1042E000CDE900010020CDE9021069462046FDF726
:1042F000E5FC06B010BD00000010024000040048BC
:10430000134810B511490160124941600021012292
:10431000C0E90212016141618161C1610162FDF781
:1043200065FE08B1FCF7D2F900210948FDF7FEFD52
:1043300008B1FCF7CBF900210548FDF722FE002863
:1043400003D0BDE81040FCF7C1B910BD00540040D7
:10435000080200209B2D8010FEE7FEE710B55020DC
:1043600080F31188BFF34F8FBFF36F8F00F0DCFD38
:1043700018B104494FF080500860002080F3118884
:1043800010BD000004ED00E010B594B0382168467F
:10439000FCF724F814210EA8FCF720F80020FEF703
:1043A000A5F8012000900004032405210190CDE927
:1043B000084102204421CDE90A1007900C900D908D
:1043C0006846FEF79BFB08B172B6FEE70F20CDE909
:1043D0000E04002010901190129004210EA8FEF7F8
:1043E0002FFA002801D072B6FEE714B010BD00000D
:1043F0000248016841F470010160704788ED00E0F7
:104400000148FEF7F8BD0000140300202DE9F04339
:104410000268234B234D244E244C4FF08049984290
:1044200007D0484505D0A84203D0B04201D0A042F1
:1044300003D122F070074A683A431D4FDFF874C079
:10444000DFF8748098420DD048450BD0A84209D0BF
:10445000B04207D0A04205D0B84203D0604501D099
:10446000404503D122F44075CA682A434D6922F0C1
:1044700080022A4302608A68C2620A6882629842A5
:1044800007D0A04205D0B84203D0604501D04045D6
:1044900001D10969016301214161BDE8F083000098
:1044A000002C01400004004000080040003401409E
:1044B0000040014000440140004801402DED0C8BBC
:1044C000B2EE04DA354D9FED369ADFED369A364E70
:1044D0009FED36AB374F384C9FED38BB9FED39CB56
:1044E000FFF760FDFFF724FDFFF746FD01222B4992
:1044F0003648FCF735FD95ED000AB8EE400A20EE8F
:10450000090A20EE290A20EE0D0A84ED020A6068ED
:1045100014280BDDDFF8B88020214046FDF7F2FCBF
:1045200040214046FDF7EEFC00206060A06801F0ED
:104530008BF841EC180B306801F086F853EC1A2B1D
:1045400000F084FF53EC182B00F0E8FD00F0B4FD00
:104550002060B84203DB9FED1F0A84ED000A20684B
:1045600001F072F853EC1B2B00F0D8FD53EC1C2B20
:1045700000F06CFF00F0A0FD00EE100A002284EDB8
:10458000000ABCEEC00A1021134810EE103AFCF7E6
:10459000A9FE0A2000F096F8A2E700002000002003
:1045A0003333534000008039940100209A9999993F
:1045B0009999C93F9A99993F0800002066666666F6
:1045C00066660A400000000000FEAF40B400002014
:1045D000000400489A99993F800100200A4C0B4D35
:1045E000B4F9041095ED020AB4F90000BDEEC00A5A
:1045F00010EE102A13B210EE102A12B2FBF7D4FFFD
:104600000A2000F05FF8EBE700000020080000201F
:10461000012000F057F8FBE7FEE70907090E002824
:1046200004DB00F1E02080F80014704700F00F0078
:1046300000F1E02080F8141D7047A821484380084D
:1046400000BF401EFCD27047FDF79EFEFFF79CFEA8
:10465000FFF71AFEFFF798FDFFF76AFDFFF750FE20
:10466000FFF71EFDFFF7BEFD0F489FED0E0A80ED20
:10467000000AFFF7A9FCFCF737F800231A461021BF
:104680000A48FCF72FFE10210848FCF738FE0122EB
:1046900007490848FCF764FCFFF7CCFD00F019F867
:1046A000FEE7000000001842940100208001002075
:1046B00020000020B400002001460020842900D002
:1046C000C81C704710B500B9012000F0F7FA0020AF
:1046D00010BD10B500F018FB002010BD3EB504461B
:1046E0000D46B0F90800FFF7E7FF02A9CDE9000188
:1046F000208A2B4682B2D4E9001000F0E9FB0128A1
:1047000001D000203EBD02983EBD00002DE9F041E1
:10471000184C0F460546E6682068001D00F010FAA8
:1047200038B9206890F82C10012088402169814315
:104730002161681C07D137B12168BDE8F0410E48FE
:10474000091D00F036BA20683544B542456021683D
:1047500005D2A06BBDE8F041091D00F012BA606BF4
:10476000091D00F00EFAA06A854200D2A562BDE8DC
:10477000F08100004C0000203C0400202DE9F041B5
:10478000054600F023FA2E4CA068401CA06020686B
:104790002C4F10B1606940B32DE02560A06801285E
:1047A00029D1002606EB860007EB800000F0DBF93C
:1047B000761C072EF6D323488C3000F0D4F921481C
:1047C000A03000F0D0F91F48B43000F0CCF91D48FB
:1047D000C83000F0C8F91B48DC3000F0C4F91948B3
:1047E0008C3060631430A06305E02068E96AC06A19
:1047F000884200D82560606A401C6062E96A012036
:10480000226988401043206101EB810007EB8000A2
:10481000291D00F0CEF900F0F9F9606900280CD0EC
:104820002068E96AC06A884207D207494FF0805081
:104830000860BFF34F8FBFF36F8FBDE8F0810000BA
:104840004C0000206003002004ED00E010B5044699
:10485000006B00F0EFF92046BDE8104000F0EAB927
:1048600010484FF44061420706D0C01D0D4920F0AA
:104870000700411AC1F540610B4A00230144C2E917
:1048800000030839183A21F0070111604B600B60F2
:104890000B1AC0E9001393604FF000405360506161
:1048A0007047000050040020A0000020144E154C5A
:1048B000A6F1C8074FF08058DFF84C9012E000BF17
:1048C00000F084F9F068C568281D00F039F9A06887
:1048D000401EA0606068401E606000F097F92846A6
:1048E000FFF7B4FF60680028EAD138680128F9D9D9
:1048F000C9F80080BFF34F8FBFF36F8FF2E700005E
:10490000280400204C00002004ED00E02DE9F047D1
:104910009A46DDE9098481466FF00303206B03EBBF
:1049200082021044089E20F00707780707D0502025
:1049300080F31188BFF34F8FBFF36F8FFEE7002521
:1049400061B1002023180A5C83F834200A5C12B19C
:10495000401C1028F6D384F8435001E084F834500A
:10496000072E00D30626E662C4E91165201D00F07B
:1049700005F904F1180000F001F92461C6F10700FF
:104980006462A061E56484F8505052464946384656
:1049900000F0C0F82060B8F1000F01D0C8F8004066
:1049A000BDE8F08730B5114900E011460A6882423F
:1049B000FBD34B685C18844203D1406818444860BC
:1049C000084643681C18944209D1084C183C2468D6
:1049D000A24209D052681A4442600A681268026012
:1049E000814200D0086030BD0460F9E7A0000020DB
:1049F0000648416B096829B1416BC968C9684968B3
:104A0000816270474FF0FF31FAE700004C00002050
:104A100008484068401C4FF0500080F3118804D0D3
:104A2000BFF34F8FBFF36F8FFEE7BFF34F8FBFF31F
:104A30006F8FFEE7A80000202DE9F0410546002712
:104A400000F096F9324E306808B9FFF709FF706937
:104A500005424ED1C5B3083568070ED005F00700F2
:104A6000C0F108000544680707D0502080F3118882
:104A7000BFF34F8FBFF36F8FFEE72DB37068854292
:104A800037D82348183001460C6801E020460C4610
:104A90006168A94202D221680029F7D131688C42AD
:104AA00027D007682168016060680837411B10291A
:104AB0000FD96019420708D0502080F31188BFF346
:104AC0004F8FBFF36F8FFEE713E041606560FFF724
:104AD00069FF61687068401A7060B268904200D2E5
:104AE000B060706901430020C4E90001F068401C17
:104AF000F06000F07FFA780707D0502080F311882B
:104B0000BFF34F8FBFF36F8FFEE73846BDE8F081EC
:104B10008800002010B5031F4FF080741C601B1F1D
:104B200021F001011960191F044B0B6014390A6050
:104B3000091F6FF0020244380A6010BD114A0008D4
:104B4000D0E9013201699A60D0E901235A604A68CC
:104B5000824201D182684A60002202610868401ED8
:104B600008600868704700F108014FF0FF32C0E9A3
:104B70000112C160016100210160704700210161E3
:104B8000704730B50B685A1C02D000F1080202E0F1
:104B9000026904E02246546825689D42FAD95368A8
:104BA0004B6099608A60516008610168491C01602E
:104BB00030BD42684A6093688B6093685960916029
:104BC00008610168491C016070470000502080F3B3
:104BD0001188BFF34F8FBFF36F8F0A494868401C9D
:104BE000486001280CD10848006810F0FF0F07D07A
:104BF000502080F31188BFF34F8FBFF36F8FFEE714
:104C000070470000A800002004ED00E00849486853
:104C100028B1401E486001D180F3118870475020B0
:104C200080F31188BFF34F8FBFF36F8FFEE7000053
:104C3000A800002070B500282AD0164DA0F1080465
:104C400060686969084207D1502080F31188BFF37A
:104C50004F8FBFF36F8FFEE722683AB1502080F389
:104C60001188BFF34F8FBFF36F8FFEE788436060FB
:104C700000F07EF860686968084468602046FFF7C5
:104C800091FE2869401C2861BDE8704000F0B2B96F
:104C900070BD0000880000204FF0E020002101617D
:104CA000816105494FF47A720968B1FBF2F1491E3E
:104CB00041610721016170474800002010B50200E2
:104CC00014D00F48006B38B1502080F31188BFF327
:104CD0004F8FBFF36F8FFEE700F04AF800211046B8
:104CE000FFF714FD00F086F9002807D105494FF0C1
:104CF00080500860BFF34F8FBFF36F8F10BD00006F
:104D00004C00002004ED00E01CB515480024CDE95E
:104D100000402346802213A1144800F0D9F801284E
:104D200009D0401C1AD1502080F31188BFF34F8F57
:104D3000BFF36F8FFEE7502080F31188BFF34F8FD2
:104D4000BFF36F8F06484FF0FF312C38816201218D
:104D50004161C460BDE81C4000F040B81CBD0000CB
:104D60007800002049444C4500000000AD48000890
:104D70000248016B491C0163704700004C00002091
:104D80001448016B11B10121C16170470021C1615B
:104D90000169B1FA81F1C1F11F0101EB81020E49F4
:104DA00051F822306BB101EB820101F108034A682E
:104DB00052684A609A4201D152684A60D1680160E3
:104DC0007047502080F31188BFF34F8FBFF36F8F70
:104DD000FEE700004C000020600300201CB53748AF
:104DE0000168374A914207D1502080F31188BFF300
:104DF0004F8FBFF36F8FFEE700683149491E88422D
:104E000007D1502080F31188BFF34F8FBFF36F8F0E
:104E1000FEE72C4908780190FF20087008788DF88B
:104E200000009DF800009DF8002000F0F000904286
:104E300007D0502080F31188BFF34F8FBFF36F8FDF
:104E4000FEE79DF80000204C00F050002070072085
:104E5000A06005E09DF8002052008DF80020401E63
:104E60009DF800201206F5D4A060032807D050203A
:104E700080F31188BFF34F8FBFF36F8FFEE74FF4BE
:104E80004070A060019808700C482030016841F41F
:104E900070010160016841F070410160FFF7FCFEA4
:104EA00000206060FBF70CFA0848016841F04041BF
:104EB0000160FBF7F1F900201CBD000000ED00E0EF
:104EC00071C20F4100E400E0A800002034EF00E0D0
:104ED0002DE9FF5F8346DDE90E87994616468A462F
:104EE0009000FFF7A9FD05001AD05420FFF7A4FD9C
:104EF000040012D025630021CDE90241CDE90087ED
:104F00004B46324651465846FFF700FD2046FFF714
:104F100035FC012004B0BDE8F09F2846FFF78AFE6B
:104F20004FF0FF30F6E700002DE9F0412F4C00264E
:104F3000206B28B1A069401CA0613046BDE8F0811B
:104F4000E5686D1CE56013D1606B006838B15020D6
:104F500080F31188BFF34F8FBFF36F8FFEE7606B55
:104F6000A16B6163A063206A401C2062FFF740FDD3
:104F7000A06ADFF87C80854209D3606B0068A0B12D
:104F8000606BC068C7687868854211D2A0622068EB
:104F9000C06A00EB800158F82100012800D90126E1
:104FA000E0690028C9D00126C7E74FF0FF30EDE7E0
:104FB000381DFFF7C5FDB86A18B107F11800FFF7F3
:104FC000BFFDF96A0120226988401043206101EB8E
:104FD000810108EB8100391DFFF7EBFDF86A2168BC
:104FE000C96A8842C9D30126C7E700004C000020E7
:104FF000600300202DE9F0472C4D00242746286B44
:1050000038B1FFF7E3FD286B401E2863286B40B1E1
:1050100046E0502080F31188BFF34F8FBFF36F8FAE
:10502000FEE7A968224E0120D1B3A6F1B40980465B
:105030003068E8B1F068C46804F11800FFF780FD3B
:10504000201DFFF77DFDE06A2A6908FA00F111438F
:10505000296100EB800109EB8100211DFFF7A9FD0B
:10506000E06A2968C96A8842E2D3C5F81C80DFE794
:105070000CB1FFF7BDFCAC6944B14646FFF754FFE5
:1050800000B1EE61641EF9D10020A861E86938B171
:105090000849012738070860BFF34F8FBFF36F8FB0
:1050A000FFF7B4FD3846BDE8F08700004C00002053
:1050B0001404002004ED00E021F00042A2F160524F
:1050C000B2F5801F01F0004328BFD2F17F6C0BD9ED
:1050D0005FEA001C43EAC20242EB507018BF7047FF
:1050E00028BF20F001007047B2F5801FBCBF1846F2
:1050F00070474FEA410C1CF5001F02D2084600F031
:1051000019BB70B500F04CFA00000089FFF7F6BF3C
:105110004FF00040A0F58000704700002DE9C0412D
:1051200030B4DFF8A0C23CEA111418BF3CEA1314F3
:1051300000F0EC8081EA03051CEA111444EAD574FE
:1051400018BF1CEA131500F0C780A4EB05044FF04C
:10515000004545EAC12145EAC32341EA505143EAEB
:10516000525304F17F74994204F500344FEAC02091
:105170004FEAC22208BF904200F09C804FEA1365BC
:105180000FF24016765D4FEA134506FB05F7C7F1AF
:10519000807706FB07F74FEAD737A7FB036876420D
:1051A000C8F58038A7FB06CE38BFA8F1010807FB79
:1051B00008E64FF0000EA6FB028CE6FB03CEDCF106
:1051C000000CCEF1004E38BFAEF1010EA6FB0C581C
:1051D0004FF000074FF00005E6FB0E87A1FB08C665
:1051E000A0FB07CE16EB0E0645F10005E1FB0765B7
:1051F00015F1E04E7EBFA4F580345FEA46066D41AE
:1052000016F1800745F100054FEA17274FEA0666B9
:1052100047EA0567A6F1DE46B6F1805F4FEA15253D
:105220001FD9384624F0010C05EBC471BCF1FE6FA8
:1052300001EB0C1102D8F0BCBDE8008124425CBF38
:1052400001F5801E9EEAC47F02D4F0BCBDE8008157
:10525000244238D4F0BCA1F1C041BDE8004100F0C7
:10526000EDB94FEAD22242EA43524FEAD323A7FBD9
:1052700002864FEAD02040EA415007FB03661EEA4F
:105280000E0F4FEAD12105FB026658BFA6EB005670
:10529000B6EB00564FEA520E4EEAC37E18EB0E0EE6
:1052A00056EB530EBDD518EB02085E417F1C55F13D
:1052B0000005B6E74FF480154FF000074FF00006E9
:1052C0004FF00008ADE7F0BC4FF0000001F1C04125
:1052D00001F00041BDE8008111EA0C1F0CEA131532
:1052E00000D00CE013EA0C1F00F025804FF0000006
:1052F000F0BC81EA030101F00041BDE80081F0BC8F
:10530000BDE8004181EA030100F098B9F0BCBDE8B6
:10531000004170B500F044F9097EFC3E00F007B88A
:1053200081EA03014FF0000001F00041704781EA7B
:10533000030100F083B9F0BCBDE800414FF000006C
:1053400021497047FFFDFBF9F7F5F4F2F0EEEDEBC4
:10535000E9E8E6E4E3E1E0DEDDDBDAD8D7D5D4D373
:10536000D1D0CFCDCCCBCAC8C7C6C5C4C2C1C0BFBF
:10537000BEBDBCBBBAB9B8B7B6B5B4B3B2B1B0AFC5
:10538000AEADACABAAA9A8A8A7A6A5A4A3A3A2A1A9
:10539000A09F9F9E9D9C9C9B9A9999989797969564
:1053A00095949393929191908F8F8E8E8D8C8C8B00
:1053B0008B8A898988888787868585848483838288
:1053C000828181800000FF070000F87F4FEA1153BF
:1053D000A3F58063D3F11E03A8BFD3F1200C08DB33
:1053E0004FF0004242EAC12252EA505232FA03F030
:1053F000704709420BD4102BC4BF0020704703F53F
:10540000787CBCF1FF3F05D04FF0FF3070474FF084
:105410000000704770B500F0C3F800BF49922480C7
:1054200000207047F0E7B0FA80F310FA03F10AD0D9
:10543000C3F11D0303F580634FEA41504FEA035265
:1054400002EBD12170474FF000007047DFF848C1F0
:1054500070B51CEA111E1EBF1CEA13159EEA0C0F44
:1054600095EA0C0F00F06F8081EA030423EA4C13E5
:105470004EEAD47E21EA4C1141F4801143F48013AA
:10548000AE44A1FB024CA0FB0365AEF17F7E361952
:1054900055EB0C05A1FB034C4CF10003A0FB021CD7
:1054A00016EB0C06654153F10003094218BF46F0A4
:1054B000010613F4007F0BD14FEA03314FEA0530A8
:1054C000340341EA155140EA16506FF003020AE036
:1054D0004FEAC3214FEAC520F40241EA555140EAA0
:1054E00056506FF0020202EB2E4201EB025585EAA4
:1054F000CE710AD05FEA440C18BF24F0004450F18A
:10550000000041F1000120EAD47040F2FE7C6245C7
:1055100000D270BDA84214BF4FF080444FF0404409
:10552000002E08BF0024BEF1806FA8BFA1F1C041CA
:10553000BDE8704080F282804FF0000001F1C04170
:1055400001F0004170479EEA0C0F0CEA131518BFDA
:1055500095EA0C0F06D04FF0000081EA030E0EF022
:10556000004170BD00F01CF88900013E00F007B852
:1055700000F009B84FEA430C5FEA5C5C08D081EAAE
:10558000030100F05BB84FEA410C5FEA5C5CF6D1C6
:105590004FF00000014970470000FF070000F87F4E
:1055A0000EF1020E2EF0030E5EF8046B364205D4A7
:1055B000012A43EB030515F5001F12D8012841EB22
:1055C000010C1CF5001F0CD80ED14FEAD17C15F54B
:1055D000001F0CEB4C0C0CF1020C08BF4CEBD37C05
:1055E00004E04FF0080C01E04FEAD37C0CEB4C05D3
:1055F00026FA05F606F00706B6F1040C06D20EEB05
:10560000860CBDE870404CF0010C6047DFE80CF000
:10561000090B02024FF000414FF00000A1F50021FC
:1056200070BD19461046012851EB010418BFD4F58E
:10563000001484BF002001F0004170BD0808A0F5EF
:1056400000114FEA3101704743004FEAD30C4FEA93
:105650003C0C43401FBF40070CF1605113F0FE4F5C
:1056600070471CF0006F03D100200CF00041704720
:105670000CF0004343EA507010B540EACC0000F053
:105680000EF800BF000000924FEA0001FFF7D6BFFE
:105690004FF000414FF00000A1F5002170470EF1DE
:1056A000020E2EF0030E5EF8044B244204D44FEA9F
:1056B0004102B2F17F4F11D84FEA4003B3F17F4F5F
:1056C0000CD80ED14FEAD07CB2F17F4F0CEB4C0CD2
:1056D0000CF1020C08BF4CEBD17C04E04FF0080C3D
:1056E00001E04FEAD17C0CEB4C0324FA03F404F004
:1056F0000704B4F1040C06D20EEB840CBDE8104094
:105700004CF0010C6047DFE80CF0070802024FF094
:105710000040A0F5800010BD0846420018BFD2F13D
:10572000807288BF00F0004010BD4FF04070E1EE85
:10573000100A7047FF2141EAD050C00570470000B1
:10574000B8570008DD450008020000000000000016
:1057500080000000A4570008114600080200000065
:105760000000000080000000B0570008BD440008A1
:1057700002000000000000008000000000010203A1
:1057800004050607080C1014182030400000000023
:1057900000000000010203040607080900000000E1
:1057A000010203045663635F5461736B00000000E1
:1057B000436F6E74726F6C007468726561645F54DD
:1057C00072616E7366657200E85700080000002081
:1057D000B4000000140200089C580008B400002027
:1057E000FC1500003002000800000000000000006E
:1057F00000000000000000000000000000000000A9
:1058000000000000000000000000000000007042E6
:105810000000000000000000000000000000000088
:105820000000000010000000010000000000000067
:105830000024F40000000000000000000000000050
:105840000000000000000000000000000000000058
:105850000000000000000000000000000000000048
:105860000000000000000000000000000000000038
:105870000000000000000000000000000000000028
:105880000000000000000000000000000000000018
:0C58900000000000AAAAAAAA0000000064
:04000005080001D915
:00000001FF
